:020000040800F2
:1000000000040020350100083D0100083F01000800
:1000100041010008430100084501000800000000FC
:100020000000000000000000000000004701000880
:1000300049010008000000004B0100084D010008C4
:100040004F0100084F0100084F0100084F01000850
:100050004F0100084F0100084F0100084F01000840
:100060004F0100084F0100084F0100084F01000830
:100070004F0100084F0100084F0100084F01000820
:100080004F0100084F0100084F0100080000000068
:100090000000000000000000000000004F01000808
:1000A0004F0100084F0100084F0100084F010008F0
:1000B0004F0100084F0100084F0100084F010008E0
:1000C0004F0100084F0100084F0100084F010008D0
:1000D0004F0100084F0100084F0100084F010008C0
:1000E0004F0100084F0100084F0100080000000008
:1000F0000000000000000000000000000000000000
:1001000000000000000000000000000000000000EF
:1001100000000000000000004F0100084F0100082F
:10012000DFF80CD000F018F80048004799010008EB
:10013000000400200648804706480047FEE7FEE727
:10014000FEE7FEE7FEE7FEE7FEE7FEE7FEE7FEE787
:100150009501000821010008064C074D06E0E06803
:1001600040F0010394E8070098471034AC42F6D3FE
:10017000FFF7DAFF5C0300086C03000881B0009011
:10018000FFE70098411E0091002801D0FFE7F8E743
:1001900001B070477047000080B586B00020059020
:1001A00041F21800C4F20200016841F01001016040
:1001B000016841F004010160016841F00101016042
:1001C000016841F48041016041F20400C4F2010081
:1001D000016821F470010160016821F07061016023
:1001E000016841F440110160016841F04071016013
:1001F00040F60400C4F20100016821F0F001016042
:10020000016821F470610160016841F0B001016092
:10021000016841F48061016043F60800C4F2010006
:1002200041F64C51016043F60C00C4F2010042F269
:100230000C01016041F20C00C4F20100016821F4DC
:1002400000510160016821F480410160016841F4BE
:100250000051016044F24021C0F20F0103900846B2
:100260000291FFF78BFF0398016821F400510160B0
:10027000016841F4804101600298FFF77FFF039815
:10028000016821F480410160FFE743F60000C4F2F9
:1002900001000068800600284AD5FFE743F6040005
:1002A000C4F2010000688DF813009DF81300463871
:1002B00001460D2801912DD80199DFE801F0072BA7
:1002C0002B2B2B2B102B2B2B2B2B1D2A41F20C0015
:1002D000C4F20100016841F4C041016027E041F22D
:1002E0000C00C4F20100016821F4005101600168B2
:1002F00041F4804101601AE041F20C00C4F20100B7
:10030000016841F400510160016821F480410160FD
:100310000DE0FFE741F20C00C4F20100016821F496
:1003200000510160016821F480410160FFE7FFE7AF
:1003300048F2A060C0F20100FFF720FFA5E702E04D
:1003400008C8121F08C1002AFAD170477047002060
:1003500001E001C1121F002AFBD170476C030008A5
:0C03600000000020000400004E03000814
:0400000508000121CD
:00000001FF
